:020000024000BC
:1080000010420120DD8D0400CFC70400C98D04009B
:10801000C98D0400C98D0400C98D0400C98D0400F8
:10802000000000000000000000000000A98F040014
:10803000C98D040000000000618F0400C98D040098
:108040001991040019910400199104001991040078
:108050001991040019910400199104001991040068
:108060001991040019910400199104001991040058
:108070001991040019910400199104001991040048
:1084800053B94AB9002908BF00281CBF4FF0FF317B
:108490004FF0FF3000F00CB8ADF1080C6DE904CEE0
:1084A00000F008F8DDF804E0DDE9022304B07047CD
:1084B000704700BF2DE9F04786468C460846089E67
:1084C000154674461946002B40F0C1808542B2FA29
:1084D00082F245D94AB1C2F1200300FA02FC95406C
:1084E00094402EFA03F343EA0C0C4FEA154EA8B25F
:1084F000230CBCFBFEF80EFB18CC08FB00F943EA8A
:108500000C43994528D9EB1808F1FF3704D2994557
:1085100002D9A8F102072B44A3EB0903A4B2B3FBD1
:10852000FEFC0EFB1C330CFB00F044EA0344A042AB
:1085300014D92C190CF1FF3304D2A04202D9ACF1AA
:1085400002032C44241A43EA07401EB1D4400023FE
:1085500034607360BDE8F0874746DDE76346F1E7C6
:1085600092BB431B01214FEA154EAFB2200CB3FB67
:10857000FEFC0EFB1C330CFB07F840EA0343984556
:1085800061D9EB180CF1FF3004D2984502D9ACF157
:1085900002002B44A3EB0803A4B2B3FBFEFC0EFBCA
:1085A0001C330CFB07F744EA0344A7424DD92C19AE
:1085B0000CF1FF3304D2A74202D9ACF102032C44E0
:1085C000E41B43EA0040C0E7C2F120039540944019
:1085D00020FA03F12EFA03F34FEA154E9040AFB2A2
:1085E0000343B1FBFEFC0EFB1C10190C0CFB07F83F
:1085F00041EA0041884522D969180CF1FF3004D2C4
:10860000884502D9ACF102002944A1EB08019BB2D4
:10861000B1FBFEFC0EFB1C110CFB07F743EA014308
:108620009F420ED9EB180CF1FF3104D29F4202D9C0
:10863000ACF102012B44DB1B41EA004193E76046A9
:10864000E3E76146F7E76046A4E76346B8E783429D
:1086500006D916B9002108467CE7C6E900E0F9E72B
:10866000B3FA83F78FB9834201D3724508D8BEEBC2
:10867000020460EB030301209C461EB9002169E758
:108680003846FAE7C6E9004CF8E7C7F1200CBB40D2
:108690000EFA07F522FA0CF42EFA0CF1BA401C433C
:1086A00020FA0CF3B8404FEA144901431FFA84FE44
:1086B000B3FBF9F809FB18300B0C08FB0EFA43EA80
:1086C00000439A4540D9E31808F1FF3004D29A4597
:1086D00002D9A8F102002344A3EB0A0389B2B3FB39
:1086E000F9F809FB183308FB0EFE41EA03418E45F9
:1086F0002CD9611808F1FF3304D28E4502D9A8F1B4
:108700000203214443EA0040A1EB0E01A0FB0298C2
:108710004145CE46434602D306D14D4504D20138E9
:10872000B9EB020E68EB0403002EA7D0B5EB0E02E6
:1087300061EB030101FA0CFC22FA07F3F9404CEA61
:108740000303C6E9003199E74046C5E74346D9E748
:1087500070B5234804F0E5FA002837D0214C2046B4
:1087600004F0DFFA002831D04FF4D0111E4803F096
:108770003EFE00282ADB4FF480311C4803F037FE10
:10878000002823DBA568AE696EB123694FF0A072A3
:108790001B680D2113F4005F14BF4FF000734FF0FE
:1087A00080632046B0471249124B4B604FF4005390
:1087B0008B60EB6913B101220A48984706A5D5E9F9
:1087C00000452046294603F0B1F9FAE74FF0FF30A3
:1087D00070BD00BFAFF30080301A1E010000000022
:1087E0001CD1040008D1040000DA0400F8D9040008
:1087F00050330120F987040002484FF40071836868
:108800005B6918471CD10400014B1B68184700BF67
:1088100000300120014B1860704700BF003001207C
:1088200030B585B004460D4610220021684604F09C
:10883000B7FB02238DF80230044B2A4621466846D6
:10884000019303F079FB05B030BD00BF0988040037
:1088500080B505460E461746984603F087F903464D
:1088600004F008FC0446DFF81890424649F800304E
:1088700039463046A84754F8090000F017FB00BFFE
:10888000080000002DE9F047058B044628079046B4
:1088900011D4022905F0070540F0CC80204603F0F2
:1088A000B4FE78B10138218B042811D8DFE800F03C
:1088B000C2106D85950001290CBF45F0100545F0EB
:1088C0002005258388F31188BFF36F8FBDE8F087FB
:1088D00001F0070AAA4500F0A5800027B9463E46E8
:1088E000A368002B00F0BC8041F00801218388F3CD
:1088F0001188BFF36F8FA168002900F0BA800D685E
:10890000002900F0B680334652462046D1F8048054
:10891000C047002D76D02B6829461D46F0E701F0B0
:1089200007035A1F012A1BD8002221F00701062B3A
:10893000276889B2C4E9002209D13B4603E0628B73
:10894000013262831B68002BF9D141F002012046FD
:10895000218303F05AFE00287AD041F0200176E00E
:10896000042B0AD121F0070189B22046218303F0AC
:108970004CFE10B141F020012183218B01F0070A48
:10898000AA454FD00027B946AAE7236921F007017D
:1089900041F00601062DD3F8009021832DD1B9F1C5
:1089A000000F3FD041F00801218388F31188BFF305
:1089B0006F8F20463949C84729E021F00701236914
:1089C00041F0040189B2042DD3F804902183E6D04C
:1089D00000274FF0040A3E4682E721F00701236991
:1089E00041F0050189B2052DD3F808902183D6D036
:1089F00000274FF0050A3E4672E700274FF0060AAF
:108A00003E466DE72B4687E7B9F1000FD1D1EFF372
:108A10001188202383F31288BFF36F8F238B23F0F9
:108A200008032383258BEA062ED525F01003238324
:108A300005F007056669218B002EBFF670AF002395
:108A40002768C4E9003321F0070141F001012183C7
:108A5000218B4FF0000901F0070AAA457FF440AFCF
:108A6000002F9CD041F00801218388F31188BFF3C7
:108A70006F8F002FC8D03D68394633465246204696
:108A800003F0EFFD2F46F4E7AB067FF51BAF25F0B3
:108A90002003238305F0070500E700BF8FC604000D
:108AA000014B03600020704708DA040008B5044851
:108AB00003F09EFDBDE80840024803F099BD00BFE9
:108AC00074DB0400A9DB040030BFFFF7FDBF00BF6B
:108AD0002DE9F04105460B4EDFF82C80324606EBBF
:108AE0000807CC1B2046094904F04DFAA01942465C
:108AF0000021083C04F054FAC5F8804007F1080052
:108B0000BDE8F0810000000004000000BCD90400B2
:108B1000074A936893F90E10002907DB52699342C4
:108B20001FBF044A536843F080535360704700BF2F
:108B30009834012000ED00E0154B9A6A12F0007F96
:108B40009A6A14BF1E201D2012F0807F9A6A18BFF7
:108B50001F2012F4801F9A6A18BF022012F4002FFF
:108B60009A6A18BF212012F4802F9A6A18BF222017
:108B700012F4003F9A6A18BF232012F4803F9A6AC9
:108B800018BF24206FEA02426FEA12429A627047CD
:108B900000ED00E010B5194B0246986A9C6A10F48B
:108BA000805F14BF1720162014F4006F9C6A18BF52
:108BB0001820A40509D5986B986A000404D51AB149
:108BC0009A6A22F400429A6219200C4B9A6A12F4B3
:108BD000806F9A6A18BF1A20D2050CD49B6A13F4CE
:108BE000005F18BF1C20054A936A43F47F439362D9
:108BF00000230B7010BD1B20F5E700BF00ED00E067
:108C000010B51C4B0246986A9C6A10F0100F14BFF6
:108C10001120102014F0080F9C6A18BF1220A4071E
:108C200009D5586B986A000604D51AB19A6A22F0E1
:108C300080029A6213200F4B9A6A12F0010F9A6A0F
:108C400018BF142012F0200F9A6A18BF1520D406FE
:108C500058BF9B6A074B9A6A920642BF5A6A22F42F
:108C600000525A629A6A42F0FF029A6200230B7025
:108C700010BD00BF00ED00E0F0B54A4B04465B6854
:108C800000258BB0C3F3080385F31188BFF36F8F02
:108C900002F07F40B0F17F4F16D1D60714D45506AD
:108CA00003D4100704D4012504E012F0040200D01C
:108CB0000C4600250022033B8DF80720032B05D826
:108CC000DFE803F02462665F2C46F3E700239DF89B
:108CD0000720CAB902AE04F1200732462068616855
:108CE000083403C2BC421646F7D1099A002D53D06E
:108CF000C2F3080121B96FEA52226FEA42220992B7
:108D0000184602A903F059FD0BB0F0BD254BDA6AF5
:108D10009107DBD4DA6A002AD8DBDA6A5200D5D5AB
:108D20005A69A16942F480725A61BFF34F8FBFF351
:108D30006F8F5A6931F8021C22F480725A61BFF3B6
:108D40004F8FBFF36F8F4DF60272914201D12368AE
:108D5000BDE79A6AD2B232B101200DF10701FFF7E7
:108D60004FFF0346B3E79A6A12F47F4F05D0012004
:108D70000DF10701FFF70EFFF3E79B6AB3F5803FA4
:108D8000A4D3FFF7D9FEECE700200DF10701E6E7D9
:108D900000200DF10701EDE722F4FF7222F001023D
:108DA000ADE700BF00ED00E0064B5A6942F010024B
:108DB0005A615A6942F480625A615A6922F0080283
:108DC0005A61704700ED00E0EFF30880EFF309818E
:108DD00001B57246FFF750FF01BD00BF002080F3D0
:108DE0001488BFF36F8F002080F30A8880F30B880C
:108DF00001F0C6F900200E490860BFF34F8F0D48FF
:108E000080F3088800F02CF8202080F311880A48AD
:108E10004FF40061401880F30988EFF314800221B9
:108E2000084380F31488BFF36F8F00F0FFF8000051
:108E300094ED00E010420120D034012000231846B8
:108E40000649D1F89020C2F30722934200DB704715
:108E5000C1F89830C1F8A0000133F6E700ED00E05A
:108E600010B572B6002484F31388FFF7E7FF23469A
:108E70004FF0FF300C4A03F120010133102B42F870
:108E80002100F8D100234FF0FF30074A03F16001C1
:108E90000133102B42F82100F8D162B6BFF34F8F97
:108EA000BFF36F8F10BD00BF00E100E0084B9B686F
:108EB00083420BD1EFF3058343B1064B5A6842F06E
:108EC00080525A605A6A22F400425A6204F020B872
:108ED0009834012000ED00E06FF00A01094A936820
:108EE000C3F888100849C3F884004B6843F08053E6
:108EF0004B60002383F31188BFF36F8F9368D3F81F
:108F0000880070479834012000ED00E0114A936812
:108F100083F88D00EFF31183202383F31288BFF3CE
:108F20006F8F4FF00061536920F0FF0093600A4A91
:108F30005160D3F88010094A1160002193F88D2008
:108F40001043D3F88420C3F8841082F31188BFF350
:108F50006F8F70479834012000ED00E05C330120F2
:108F600010498A6882F88DE04FF030001044EFF32A
:108F7000098C80E8F01F74467046FFF7C7FFA646CD
:108F800008498A68864602F1300090E8F01F8CF3A9
:108F9000098802F1000004B503F026FCBDE8044096
:108FA00070470000983401201EF0040F0CBFEFF34F
:108FB0000880EFF30980816911F8021C0229FFD0B3
:108FC00001B503F000FC01BD00B2002807DB01235E
:108FD0004109034A00F01F00834042F821307047E6
:108FE00000E100E0054B420953F82220012300F084
:108FF0001F0003FA00F01040704700BF00E100E0DE
:1090000000B2002801F10101ACBF00F16040064B45
:109010004FEA4111C9B2ABBF00F5614000F00F004B
:1090200080F800131954704714ED00E00B4A08B59E
:109030000B4B22F07F029A60BFF34F8FBFF36F8F0D
:10904000D3F8882022F47002C3F8882002F000F9D7
:1090500002F018FE00F050F802F03AF90080040027
:1090600000ED00E042F8203C009B0D4942F81C3C1A
:10907000019B21F0010142F8183C029B42F8081CB8
:1090800042F8143C4FF0807342F8043C0023C0F8CF
:1090900084304FF43C43203A0265C0F88C3070476E
:1090A0005188040000B50D4B15469860D0F880201B
:1090B0000B4B0E461A60036F83F30B882C4686F326
:1090C00009884FF00000074B984720464FF00001F9
:1090D0004FF000024FF00003034C2047983401206A
:1090E0005C330120F1C70400518804001022014BB9
:1090F0001A61704700ED00E00023202040F20F12BB
:1091000010B5044CE1180133934281F80003F9D102
:1091100010BD00BF00E100E008B5EFF30583064A8B
:10912000103B02EBC30152F8330049688847BDE8A1
:109130000840FFF7EDBC00BF44D104001FB5094C47
:10914000094A23460121094800F0FAF80023039355
:10915000074B0121E41A01A80193029400F0FAF8E8
:1091600004B010BD00F002200030012008DA040035
:109170007831012010B50C7A0B6804F01F0223F03F
:109180001F031A43CB68640923F01F03054943EA10
:10919000440343F00103C1F89800C1F89C20C1F8D2
:1091A000A03010BD00ED00E010B5074BD3F89030B3
:1091B000C3F30723013B984202D8FFF7DBFF10BD42
:1091C0006FF01500FBE700BF00ED00E02DE9F04F68
:1091D0000F46144606464FF000084D4D85B0B84581
:1091E00080F29280D6F80490B9F1000F36D0B9F130
:1091F0001F0F40F2878019F01F0F40F08380D6F8D0
:1092000000A01AF01F0F7DD1504603F014FB8346D7
:1092100009EB0A00013803F00EFB834572D11BF104
:10922000160F6FD05C456DDDC5F898B0D5F89C1071
:10923000C5F898B0D5F8A03021F01F0143F01F0AFF
:10924000D6E900321A44994202F1FF391ED1CA45CB
:1092500008D131465FFA8BF003F0F6FA08F1010805
:109260000C36BCE73146C5F898B0D5F89C3022F0F2
:109270001F0203F01F031343C5F89C30E0B203F054
:10928000E3FA10F1160F3DD0441CE7E7C5F898B09B
:10929000D5F8A020013B23F01F0302F01F02134367
:1092A000CA453146E0B2C5F8A030E8D003F0CCFAA8
:1092B00010F1160F26D0C5F898B0D5F89C209DF86F
:1092C00008300AF1FF3A62F304038DF80830D5F84C
:1092D000A0309DF808205B0863F347128DF8082042
:1092E000D6E900321344009323F01F035344A3EB49
:1092F0000903013023F01F036946C0B20393FFF74F
:1093000053FFBEE76FF01504204605B0BDE8F08FAF
:1093100000ED00E00522044BC3F89420BFF34F8F0B
:10932000BFF36F8F704700BF00ED00E0BFF35F8FAA
:109330000022024BC3F89420704700BF00ED00E00C
:1093400010B5034C2278FFF741FF207010BD00BF1D
:10935000C83401202DE9F74F294D8A4606464FF0C3
:109360000008AB46274FD0451BDAD6F80490B9F178
:10937000000F3FD031680846019103F05CFA019973
:10938000044609EB0100013803F055FA84424FF01E
:1093900014021D4B08D002FB08F36FF015024BF8C6
:1093A000032003B0BDE8F08F14F1160F2C60F8D045
:1093B0001978A142F5DD02FB08B0C7F89840C7F85C
:1093C0009840D7F89C4000F10801007B64F304004A
:1093D0000871D7F8A0000C79400860F347140C71AD
:1093E000D7F89C1021F01F016960D7F8A01021F078
:1093F0001F01296108F1010814350C36B3E700BFDD
:109400006033012000ED00E0C8340120F0B541498F
:10941000414CD1F890302568C3F307239D4287B0B3
:1094200075D80020FFF782FF3C4BC1F8C030854261
:1094300016D13B4C01A82570FFF732FB00250646EC
:10944000384FAE4213D1002023783249D1F8902012
:10945000C2F30722934254DBFFF75CFF00202FE0AA
:10946000616801EB0011FFF785FE0130DFE701992C
:10947000280101EB0513DA683A40B2F5001F21D04C
:10948000B2F5800F2BD0B2F5801F38D15A689B6897
:109490000958013B22F01F0003440120844623F0B9
:1094A0001F0340EA4C10CDE902218DF8100002A9FB
:1094B00020780593FFF778FE00281DDA6FF015007D
:1094C00007B0F0BD5A689B680958013B22F01F00A5
:1094D00003444FF0020C012023F01F03E1E75A6818
:1094E0009B680958013B22F01F0003444FF0000C19
:1094F000062023F01F03D4E72378013323700135BE
:109500009FE7C1F89830C1F8A00001339EE74FF003
:10951000FF30D5E700ED00E014DA0400AAFF4400B4
:10952000C83401200000F0FF08B5024B1B689847C3
:10953000002008BD74330120034B044A186093785F
:1095400043F002039370704774330120043001200C
:1095500008B50649064821F00701C1F1005202F59D
:109560003C3202F0EBFF002008BD00BF1742012093
:109570007833012048B1054B054A1B68B3FBF2F371
:109580005843044B43F00103184770472030012033
:1095900040420F00E0D90400084B70B5C31A0D46D5
:1095A00007499B10044659434022064803F075F9C9
:1095B0002B4601462046BDE87040184798330120ED
:1095C000B76DDBB6E0D00400402373B50B4C0093BD
:1095D000041B0B460D460A49A41061430646094A7E
:1095E000094803F086F9011E05DA30462B4602B021
:1095F000BDE87040184702B070BD00BF983301202D
:10960000B76DDBB65DC90400E0D0040010B5EFF320
:109610001184202383F31288BFF36F8F074A1368E6
:1096200023F00201DB07116002D4012003F0ABFA42
:1096300084F31188BFF36F8F10BD00BFE8330120A2
:1096400070B500220121044640F20510FFF7D8FC56
:109650000F4800F037FE0F4B984215D100F042FE44
:1096600026690D49304603F01FF800280BDB012561
:1096700035642469084904F11C0003F015F800283A
:1096800001DB0020E56470BD6FF00400FBE700BF64
:10969000959704000000AD0B3CDA04001FB50022D2
:1096A0000123CDE902236B46084ACDF800D0CDF85E
:1096B00004D003F04CF9002805DB43F609520023DF
:1096C000684601F049FF05B05DF804FB7BC9040062
:1096D0000C22104B014602FB0033002030B4D3E9CA
:1096E0000E529863EFF31180202484F31288BFF3A5
:1096F0006F8F1C6C04F0C00444F002041C6480F3FF
:109700001188BFF36F8F1DB12B4630BC024818473C
:1097100030BC704798330120E0D0040010B4EFF360
:109720001182202383F31288BFF36F8F16480168DC
:1097300041F002040460C80707D482F31188BFF324
:109740006F8F012010BC00F0E3BD1049D1F80C145C
:10975000C903F2D5EFF3118083F31288BFF36F8F43
:109760000B490B6C03F0C00343F002030B6480F35E
:109770001188BFF36F8F82F31188BFF36F8F0020C2
:1097800010BCFFF7A5BF00BFE833012000E0104088
:109790009833012010B1012804D07047034B1B6C93
:1097A0005B0701D1FFF794BF704700BF98330120DA
:1097B0002DE9F041012207463449D1E8EF3FC1E8E5
:1097C000E02F0028F9D133B9314932484B60CB60E2
:1097D0008A6002F07CFF7B1E012B28D8012F06D166
:1097E0002D4BD3F8503403F00303012B1FD003F0AB
:1097F000DEFA0546E8B9294B1B78D3B104220646A8
:10980000254BC3F80823244CDFF89480D4F84C246B
:10981000D4F84C34D20315D503F00303012B01D047
:10982000012F0FD165B386F31188BFF36F8FBDE8A9
:10983000F081EFF31186202383F31288BFF36F8F3B
:109840000125E0E7BDB1304602F0E6FFD4F8403430
:1098500013F0FF03DAD1D4F80821002AD6D0C4F8D7
:109860000831D4F8083120220123C4F84034C8F864
:10987000A0212361CAE70021202002F057F9E5E783
:109880000422054BC3F80423D1E700BF9433012021
:1098900084330120B433012000E01040CB34012098
:1098A00000E100E008B5074803F03BFA38B106488C
:1098B000FFF742FE0448FEF7ADFF002008BD6FF041
:1098C0001200FBE730D10400CD9804000A2838B517
:1098D0000446074D04D1AB680D2128465B689847C4
:1098E000AB6803485B68E1B29847204638BD00BFCB
:1098F00030D1040038B545682B69E3B110352846EE
:1099000001F06AF90446B0B90146284601F028F989
:109910000B4B984211D1224628460A4901F0F4F82F
:1099200022460121DA20FFF76BFB224601214FF48A
:109930008670FFF765FB002038BD6FF00400FBE781
:109940000000AD0BCD9A04002DE9F04340F206353E
:109950004668D00648BF0320337B02EA050558BF9E
:10996000C2F3401087B001F01F07B5F5837F14469E
:1099700047EA43178DF8030046D00FD8062D45D08F
:1099800007D8B5B1022D14D06FF0150007B0BDE8AF
:10999000F083B5F5807FF7D101250AE040F202227D
:1099A000954235D0B5F5407F34D0B5F5007FEBD189
:1099B00004250123220303FA01F12DD573685960B0
:1099C000326972BB5F2F07F01F034FEA571175D83A
:1099D0003C4A52F8212084F4803102EB8302D2F811
:1099E0008030C1F30041C4F3404423F4706344EA7F
:1099F000410423F00F031C4344EA800444EA052495
:109A0000C2F880400020C1E70925D2E70825D0E749
:109A10000625CEE70525CCE7630344BF736899604C
:109A2000CEE71036394630460DF1020201F07AF8E1
:109A300014F4403F80460CD13946304603F068F9B3
:109A4000214B9845DED130469DF8021001F0D2F846
:109A5000D8E74FF0000901AB3946304603AACDE9FB
:109A60000439CDE90199CDF80C9000F0C3FE164BF6
:109A7000984289D114F4003315D09DF8033084F452
:109A80008034C4F300448DF80E3039464B463046DE
:109A900003AA8DF80C508DF80D4000F0A1FF0A4B81
:109AA0009842CDD070E7CDE9043339460DF1030378
:109AB000304603AA039300F09DFEF0E7203352F8EE
:109AC0002330FFDE74DA04000000AD0B4209022AE5
:109AD000034670B503D0012A18D0CAB170BD0E4E2E
:109AE000326951680029F9D0012503F01F030C6881
:109AF0009D400029F2D08A682A4002D030464B6847
:109B000098473CB1236821461C46F2E7034EE7E73D
:109B1000034EE5E72346F6E71CD1040008D1040014
:109B2000F4D00400F0B5406801F01F04057B87B055
:109B300044EA45140569002D63D0B2F5001F00F119
:109B4000100506D12146284603F0E4F8002007B0AE
:109B5000F0BD0027B2F5800F01AE019777603BD1D1
:109B6000B3F1007F14BF052304238DF804300023D4
:109B7000CDE904630393836823FA01F111F0010135
:109B80001CD1B2F1A07F19D104F01F035F2C4FEA62
:109B9000541003F120033AD81E4A52F8202052F8FC
:109BA0002330DB070AD40DF103063246214628464E
:109BB00000F0B8FF184B984219D00296214628466B
:109BC00003AA00F017FE154B98421DD10122214631
:109BD000284601F027F8B9E7B3F1C06F05D0B3F11B
:109BE000007F14BF01230223BFE70323BDE73146F3
:109BF000284601F00BF8094B9842DED06FF00B00BD
:109C0000A5E76FF08500A2E76FF015009FE751F818
:109C10002330FFDE74DA04000400AD0B0000AD0B4E
:109C2000036803F01F025F2B02604FEA53129ABFD2
:109C3000024B53F822000020704700BFECDA04000A
:109C40002DE9F04F1546064640F2FF18DFF83C912B
:109C5000DFF83CA185B000EB8101B14203D10020C7
:109C600005B0BDE8F08F3368C3F3C322082AC3F3FD
:109C7000080400F284801B0E444508BF4FF0FF34F7
:109C800019F80270192B7DD8DFE803F00D1C47602E
:109C90004A50607C7C7C7C7C7C7C7C7C7C7C7C7C7E
:109CA0007C7C636D7073C5F80446621C3CD04FF039
:109CB000010B03A80394FFF7B3FF039B0BFA03F315
:109CC000436005E0C5F80C46601C2DD04FF0000B3A
:109CD0005A463368039403F40040002818BF00225A
:109CE00003A818BF4FF0010B01930092FFF798FFF4
:109CF000039C019B00EB8400D0F88040C3F3412C0F
:109D0000009A3B0243EA8C03134304EA0A04234308
:109D100043EA4B03C0F8803006E0C5F81046C4E7BC
:109D2000631CC5F8004627D1043696E7601CC5F8C9
:109D30000446F9D04FF0010B03A80394FFF770FF1E
:109D40000122039B02FA03F38360C2E7C5F80846C9
:109D5000BAE7C5F86045621C3368E5D0C3F3004339
:109D6000002BE7D0A3E7C5F86445F4E7C5F86845DC
:109D7000F1E7C5F86C45EEE74FF0000BDCE76FF05C
:109D800015006DE76FF085006AE700BF15DC040081
:109D9000F0F0FCFF2DE9F04104460D46476803F062
:109DA00006F8A0B9274B1B788BB14FF0200864262A
:109DB00063681B68D3F830318BBB012002F0E1FEF1
:109DC000013EF5D10021202001F0B0FEEFE7202177
:109DD000EFF311831A4681F31288BFF36F8F606827
:109DE0000068D0F8300120B983F31188BFF36F8F7A
:109DF000EEE73B6A00201D706368396A1B68C3F890
:109E00003C170121C3F84017C3F83001D3F83001E3
:109E1000196582F31188BFF36F8FBDE8F081EFF30E
:109E200011831A4688F31288BFF36F8F616809683F
:109E3000D1F830110029DCD183F31188BFF36F8F83
:109E4000C0E700BFCB34012073B514461D466846F9
:109E500000F0B0FF009BA342019BAB4114D30B4A1F
:109E6000D2E90061A41B24F01F0365EB0100640923
:109E70009B1941EB000144EAC060C2E9003102B025
:109E8000BDE8704001F0D8BF02B070BD783101204C
:109E900010B500220121E320FFF7B2F8002000F006
:109EA000BBFF114B0446984208D101200F4901F035
:109EB00049F8A04205D00E4B984211D04FF0FF3028
:109EC00010BD67220B4B02201A60FFF771FC0A4A93
:109ED0000020D2F8183723F44033C2F81837EFE7E0
:109EE0006FF00B00ECE700BF0000AD0B1C30012051
:109EF0000200AD0B1834012000200E4007B5684663
:109F000000F058FF0098074AD2E90032C01A019BBE
:109F10004FEA501063EB020340EAC36003B05DF800
:109F200004FB00BF783101207FB5431C18BF20EA35
:109F3000E07502A808BF6FF0004500F03BFF0299F2
:109F40000E4B2020D3E900268C1A039961EB0603FF
:109F50002146C5FB0013402973F1000436BF0146BA
:109F600021F01F01002352184FF0010146EB0303BB
:109F70000091034801F04AF804B070BD7831012027
:109F8000143001200149024802F0D1BD51A0040063
:109F90001C3401202C4A00F00800136F072B2BD033
:109FA000132B1CD0052B3AD1526D12F4805F14BFD5
:109FB0001723162312F4006F18BF182312F4007F22
:109FC0001EBF224B9B6B192312F4806F18BF1A23FC
:109FD00012F4807F25D112F4005F18BF1C23CA69D8
:109FE00068BBC2F3080020B96FEA52226FEA42222E
:109FF000CA61184602F0E1BBD36DDA0713D49A07A1
:10A0000013D45A0713D41A0713D4DA0613D49A06B2
:10A0100013D413F0800F14BF2C232523DFE7002374
:10A02000DDE71B23DBE72623D9E72723D7E7282310
:10A03000D5E72923D3E72A23D1E72B23CFE722F43F
:10A04000FF7222F00102D3E71C34012000ED00E092
:10A0500000B5104B89B05A6AD86C00929A6A20F009
:10A0600005000192DA6A694602921A6B03925A6BF2
:10A0700004929A6B0592DA6B06921A6C1B6D07922A
:10A080009B0748BF40F00400FFF784FF09B05DF86C
:10A0900004FB00BF1C3401202DE9F0411F46164B84
:10A0A000044693F800800D461646A2B0B8F1000FA2
:10A0B00015D1684602F092FB3A4631462846289B65
:10A0C000A0470446684602F08AFBB8F1000F02D0B0
:10A0D0000A4801F0E1F9204622B0BDE8F0814FF0D6
:10A0E000FF324FF0FF33054801F05EF90028E0D061
:10A0F0006FF08304EFE700BFCB340120643101200F
:10A10000002300B589B0CDE9063303AB04930423E3
:10A1100003900593A9B10B6806934B68079302233C
:10A12000111E18BF01210848CDE9002140F2F53188
:10A1300004AA00F00BF80028B8BF012009B05DF8B0
:10A1400004FB0123ECE700BF0501004010B4B1F5AA
:10A15000004F029C0ED2042B0CD8042C0AD82404E5
:10A1600044EA0364134644EA0102014610BC034872
:10A17000FFF792BF6FF0800010BC7047A104000091
:10A18000034AD2F88C3043F44063C2F88C307047F5
:10A1900000ED00E030B50468ACB1B4FA84F30122FC
:10A1A000C3F11F03DBB29A4024EA0202D0E8EF5F5A
:10A1B000A54204D1C0E8EC2FBCF1000FF6D1EAD1E2
:10A1C00002480B7030BD0248FCE700BF0000AD0B39
:10A1D0000200AD0B10B50368CB40DB0710D40123A0
:10A1E0008B40026843EA0201D0E8EF4F944204D169
:10A1F000C0E8EC1FBCF1000FF6D1F2D1014810BD50
:10A200000148FCE70000AD0B0400AD0BF7B50446B8
:10A2100018B1012822D003B0F0BD0422284B064615
:10A22000C3F8082301225A61C3F80801D3F80831A2
:10A23000002342F21075224F8DF80730D4B1012C63
:10A24000E9D1D7F80C3403F480338EBB002BE2D075
:10A25000012002F096FC013DF3D1DCE70022184B0F
:10A260000DF10706C3F808035860C3F80021D3F8BE
:10A270000031DDE7D7F84C3403F480333EB9002BCE
:10A28000C9D0012002F07DFC013DF3D1C3E7D7F82E
:10A290004C2402F003023270002BBCD09DF8073032
:10A2A000002BB8D1012002F06CFC013DC6D1B2E711
:10A2B000002B0CBF012300233370EFD1ABE700BFAD
:10A2C00000E01040044B1A7922B9012218601A717B
:10A2D0000248704702487047903401200000AD0BDF
:10A2E0000C00AD0B08B5084B1B6843B140F20510DC
:10A2F000FEF778FE18B940F20510FEF765FE002261
:10A30000024BC3F8402408BD9034012000E0104007
:10A3100010B510B1012844D010BD274BD3F84C1410
:10A32000D3F84C24C80323D502F00303012B04D037
:10A3300013B10020FFF76AFF00231F4A0420C2F870
:10A34000403410224FF48473002103F1804303F55D
:10A35000871319601C68012402F1804202F58712FC
:10A360001460164A126802B3134BC3F80403D3E710
:10A37000D3F84824D107DFD5D3F850249207D8D496
:10A380000E4A12681AB10422C3F80423C4E7D3F8B2
:10A390000821002AFBD00022C3F80821D3F8083195
:10A3A000BAE700224FF48073CEE71A68002AFCD087
:10A3B00019601B68B0E700BF00E010409034012036
:10A3C00010B51E4BD3F8002152B10020C3F8000194
:10A3D000D3F800210122C3F80823194B1B689847C2
:10A3E000164BD3F8082172B10022C3F80821D3F824
:10A3F0000821D3F84C24D3F84C24920714D101221D
:10A40000C3F840241A610D4BD3F80421A2B10022F5
:10A410000220C3F80421D3F80421C3F80803084B31
:10A42000BDE810401B6818470422C3F80823044BFA
:10A4300001201B689847E6E710BD00BF00E0104010
:10A4400090340120036803F01F025F2B02604FEA83
:10A4500053129ABF024B53F822000020704700BFEE
:10A4600050DB0400034A4309D35C00F01F0018448A
:10A47000C0B2704729DC040070B505460846FFF7F6
:10A48000F1FF36212A79174B01FB0202083233F81B
:10A490001200C10525D56C240026C0F3432120F409
:10A4A000F85023F812002A7904FB02340E3434F8F1
:10A4B000020F10F4807F03D0C0F34320814210D0FC
:10A4C0000136232EF3D16C200024424302EBC1025B
:10A4D0009C502A79BDE8704000FB02306030FFF7E5
:10A4E00079BE70BD24300120F0B50646002487B047
:10A4F000114F019117F8012B06AB03EBD20313F8B0
:10A50000143C02F00702D34013F0010306D10134DA
:10A51000032CEFD10023184607B0F0BD074A03AD66
:10A5200007CA85E8070055F824100A6A46F824206F
:10A530000A62002AEBD0EEE739DC0400C0D904003F
:10A5400010B504460846FFF78DFF362303FB0400D1
:10A55000024B083033F81000400B10BD24300120AE
:10A5600010B504460846FFF77DFF362303FB0400C1
:10A57000034B083033F81000C0F3400010BD00BF9B
:10A580002430012010B504460846FFF76BFF362340
:10A5900003FB0400034B083033F81000C0F34010F5
:10A5A00010BD00BF243001202DE9F04F0D46D0F83A
:10A5B000041387B0C9B241F48031AA6D009002F053
:10A5C0005BFBC10306462ED50023696E03A8CDE9C7
:10A5D00003330593FFF788FFDFF868A1DFF868B160
:10A5E0000DF10C091AF8013B05EBD30292F8642037
:10A5F00003F0070322FA03F3DA076AD4534B09F195
:10A60000040953450BF1010BECD14FF48031AA6DD5
:10A61000009802F031FB696E03A8FFF765FF002880
:10A62000DAD126F480360124002E73D107B0BDE8BC
:10A63000F08F91FAA1F1B1FA81F19BF8004041EA63
:10A6400044142046FFF70EFF083035F81080C80884
:10A650004FEA98030193012319F8002001F0070144
:10A6600003FA01F122EA010209F8002002A802948B
:10A67000FFF7E8FE029A019B203250F82220C8F32F
:10A6800082075B07B846C2F3014227D52846D7B2F6
:10A690002146424602F0D1FA02A80294FFF7D2FE08
:10A6A000029B203350F82330C3F301439F4207D16C
:10A6B0000021204602F0B2FA3946204602F0AEFAF6
:10A6C00002A80294FFF7BEFE0122029B02FA03F3E6
:10A6D0000362D9F800100029ABD18FE7022A0DD10F
:10A6E0000321204602F09AFA07F00503012BE7D177
:10A6F00042462146284602F0A0FAE1E70221204620
:10A70000019202F08BFA032FF2D0019A032AD7D1DB
:10A71000022FECE796FAA6F3B3FA83F304FA03F2F6
:10A7200026EA0206009A284602EB8303D3F81015A6
:10A73000D3F81025C1F30811C2F3014202F07DFAEB
:10A7400072E700BF39DC040039DC04003CDC0400A3
:10A750002DE9F74305460846FFF784FE36222B799C
:10A76000204F02FB0303083337F813300E46DB0794
:10A77000044635D5284602F0A6FA95F804903146ED
:10A780004846FFF7FFFE60B14846FFF7D9FE0022BA
:10A79000D5F8008000B208EB8003C3F81025C3F899
:10A7A000102528463146FFF767FE36222B7901A88F
:10A7B00002FB03440023083427F814300196FFF706
:10A7C00041FE019B00EB8300D0F88020064B134034
:10A7D00043F00203C0F88030044803B0BDE8F083C2
:10A7E0000348FAE724300120F0F0FCFF0000AD0B35
:10A7F0000400AD0B2DE9FF47174604460846FFF756
:10A8000031FE3E688846054676B394F80490484683
:10A81000FFF7A6FE18B14846FFF7B4FEA0BB002321
:10A820004046CDE900338DF80E308DF80F300DF134
:10A830000F0233460DF10E0102F0A7F936202379FD
:10A84000644A00FB0353083332F8131021F002016D
:10A8500022F81310237900FB0353083332F8131046
:10A8600041F0010122F813107B68002B45D02679B6
:10A870004146304693F80090D3F804A0FFF770FEED
:10A8800020B1BAF1000F22D0534839E04FF0360C16
:10A890000CFB06564F49083631F8163023F4604356
:10A8A00023F0200321F81630BAF1000F0FD0B9F1D0
:10A8B000030FE9D87B6826685B68187806EB80068A
:10A8C000B9F1000F1FD1C6F81095C6F810953620C3
:10A8D0002379404A00FB0353083332F8131021F068
:10A8E0001C0122F81310237900FB0353083332F8BC
:10A8F000131041EA890122F81310BB6863BB374883
:10A9000004B0BDE8F087D6F8102522F00302C6F89F
:10A910001025226802EB8003D3F8102522F4473279
:10A9200022F47C72C3F8102541F6F072D3F810655A
:10A9300002EA081242EA09423243C3F81025237999
:10A940000CFB0353083331F8132042EA403242F043
:10A95000200221F81320BAE74146D3E900972046A8
:10A96000FFF78AFDB9F1000FC9D06C232079194E89
:10A970004343F218F358994504D153689F4201D1DB
:10A9800000210CE06C2303FB00600DF10F0160302F
:10A99000FFF700FC114B9842B2D19DF80F106C22CA
:10A9A0002379534303EBC10346F8039023795343C0
:10A9B000362203EBC10333445F60237902FB035368
:10A9C000083336F8132042EA412242F4807226F816
:10A9D000132094E7243001200400AD0B0000AD0BE0
:10A9E0002DE9FF470546084617461E46FFF73AFD84
:10A9F0008946044687B395F804804046FFF7B0FDCA
:10AA000018B94046FFF7BEFD68BB362303FB084874
:10AA1000DFF8E4A008F108083AF8183013F01C0F2A
:10AA200002D07B78012B1ED001238DF80F3000233C
:10AA30007A1CCDE900734846BB1C0DF10F0102F0F2
:10AA4000A4F836222B7902FB034308333AF813208B
:10AA500042F003022AF81320002E4BD049462879F1
:10AA6000FFF77EFD18B9254804B0BDE8F087002146
:10AA70004FF0360C30782B68820003EB8003C3F86C
:10AA80001015C3F810152B791B490CFB0343083331
:10AA900031F8137027F4604727F0200721F813706E
:10AAA00077783FB32B68B6781A44D2F810E5144B88
:10AAB0003F040EEA0303C2F8103541F6F07307F4C1
:10AAC000403703EA09133605D2F810E53B4306F494
:10AAD0008016334343EA0E03C2F810352B790CFB82
:10AAE0000344083431F8143043EA403343F0200380
:10AAF00021F814300348B7E7243001200400AD0BDF
:10AB00000FE0ECFF0000AD0B30B56C250479044B71
:10AB100005FB0434A160017905FB0133DA6030BD27
:10AB20002430012070B5067914463046FFF72AFD1F
:10AB300068B10846FFF796FC362303FB0600054B79
:10AB4000083033F8103004485B0B237070BD0348A5
:10AB5000FCE700BF243001200000AD0B0400AD0B6A
:10AB60002DE9F041064607796C20184D00FB075887
:10AB700098F8684044BB404621464622103002F017
:10AB80000FFA21463068D8F858608E4212D100235F
:10AB9000C0F84031D0F84031C0F30830FEF714FA65
:10ABA0006C2303FB07550123094885F868302B66A1
:10ABB000BDE8F081CBB29B0003F58072402B04BF4F
:10ABC000845083580131E0E70248F1E72430012046
:10ABD0000000AD0B0C00AD0B6C210279044B01FBA6
:10ABE000023393F86800003818BF0120704700BF97
:10ABF000243001206C235C22007913FB00230248DF
:10AC00001844FFF7E7BA00BF243001206C235C2210
:10AC1000007913FB002302481844FFF7BBBA00BFBA
:10AC2000243001202DE9F34103681746D3F80423AB
:10AC30000446D2035CBF4FF48032C3F80423067984
:10AC40000D463046FFF79EFC08B33046FFF788FC00
:10AC50008046E0B93046FFF773FC05B22168AD00CD
:10AC600005F5807241F802808A5821682944D1F89C
:10AC7000102542F00102C1F810252FB101222168F0
:10AC800002FA00F3C1F8043302B0BDE8F0812846AF
:10AC9000FFF7E8FB362303FB06000F4B083033F8C1
:10ACA0001030C3F38203042B11D0052B11D001A85F
:10ACB0000195FFF7C7FB019AC368D34003F0010376
:10ACC000991C284602B0BDE8F04101F0A7BF03215E
:10ACD000F7E70221F5E700BF2430012001490248CF
:10ACE000FFF762BC2430012000A00D40014902485A
:10ACF000FFF75ABC9030012000C0104070B500230F
:10AD000067240126027A94FAA4F1B1FA81F1914202
:10AD100003F1010518D100210C24120102F1804237
:10AD200002F56222C2F82C150A4ADBB204FB0323A7
:10AD30000168D960416819610121007A187593682A
:10AD400081400B43936070BD06FA01F12B4624EA63
:10AD50000104D8E7FC300120074B027AD3F8101524
:10AD600021F001010A43C3F810250268C3F8A426A4
:10AD70004268C3F8AC26704700200E40012303FA56
:10AD800000F010F0670F0AD0064B5B68DB4303F05E
:10AD900067030342044B054818BF18467047044830
:10ADA000704700BFFC3001200000AD0B0400AD0B6C
:10ADB0000800AD0B002300222DE9F048C0E9002374
:10ADC000114BD3F810359B071CD5EFF311812023CD
:10ADD00083F31288BFF36F8F4FF0FF356FF040445D
:10ADE0000A4ED6E900BC5D4574EB0C07F9D3CCF3F1
:10ADF0001303C0E900B381F31188BFF36F8F0448D8
:10AE0000BDE8F0880348FBE700200E4030270E40E5
:10AE10000000AD0B0100AD0BF0B53F4C85B02578BF
:10AE2000002D75D13D4A01AB07CA83E807003C49B4
:10AE30001846D1F8102522F00202C1F81025FFF7BC
:10AE40008BFF0723672202F001012944013BCDB2A9
:10AE50004FEA5202F7D1052D5CD11A4601272E4840
:10AE6000002567265FFA82FC96FAA6F15FFA85FE56
:10AE7000E645B1FA81F145D30132052A017500F1A9
:10AE80000C00EDD10120002526499A0800FA02F2B3
:10AE900012F0670F1CBF5D505A580433302BF4D1A9
:10AEA000E320FEF791F81E4B1F49D3F8182703F54E
:10AEB000C07322F4403242F48032C3F89825D3F8AC
:10AEC000902322F00202C3F8902340F6FF72C3F8E9
:10AED000982100221A60A3F5807004338B4202602F
:10AEE000F8D101250E4B114A1D66114B5D201B68E0
:10AEF000B3FBF2F358430F4B2B4398470E48257092
:10AF000005B0F0BD07FA01F126EA01060135ABE70D
:10AF10000A48F5E70A48F3E7FC300120CCD90400E1
:10AF200000200E4000210E40B0210E4040420F0094
:10AF300020300120F0D904000000AD0B0C00AD0B57
:10AF40000100AD0B73B52A4C054663680E4603F04D
:10AF5000010304F1140101A80193FFF71BF9254B2C
:10AF600098423DD100233370636823F0010363608E
:10AF7000A36843F00103A3601F4BD3F81025960785
:10AF800032D4D3F8102542F00202C3F81025C5B11F
:10AF9000D3F8382712F0010202BFD3F8381741F076
:10AFA0000101C3F83817144BD3F83017D3F834170E
:10AFB0004C00F9D42AB9D3F8382722F00102C3F89B
:10AFC00038270E4B0E4A1B68B3FBF2F30A4A03EB19
:10AFD00043135BB1D2F83017D2F83417490001D4CB
:10AFE00002B070BD013BF4E70648F9E70648F7E711
:10AFF000FC3001200000AD0B00200E40203001206D
:10B0000040420F000C00AD0B0700AD0B2DE9F041E5
:10B010000446007A1D46FFF7B1FE1A4B17469842C8
:10B0200006469DF8188029D12046FFF767FEEFF30A
:10B030001180202383F31288BFF36F8F227A124B83
:10B040009200134400221A60217AC5F31305090106
:10B0500001F1804101F562211B68C1F82075C1F83A
:10B06000245580F31188BFF36F8FB8F1000F05D01E
:10B070000123227A9340054AC2F814333046BDE8D2
:10B08000F08100BF0000AD0B00210E4000200E40FB
:10B09000F7B5254A002053689268DB4303F0670345
:10B0A00013401C46012607460CBB01271F4B1E4DB3
:10B0B000D3F810630640287D07FA00F333420FD01F
:10B0C000E96869B10201D5F810C002F1804202F5C9
:10B0D0006222D2F82435D2F82025CDF800C0884766
:10B0E0000134052C05F10C05E5D103B0F0BD94FA4F
:10B0F000A4F5B5FA85F5AA0002F58071920806FA62
:10B1000002F213420BD001F1804101F56221D1F826
:10B1100000C0BCF1000F02D00F600968104306FAAE
:10B1200005F524EA0504BFE7FC30012000200E40AD
:10B1300038B5EFF31185202383F31288BFF36F8FA7
:10B14000064B9C6801F000FE85F31188BFF36F8FFA
:10B150002046BDE83840FDF7A9BE00BF9834012065
:10B1600038B5094B53F82040013053F82050A54220
:10B1700000D838BD636823B1204601F0E8FD0834EB
:10B18000F5E723689847FAE75CDB0400012270B515
:10B190002A4B032086B01A70FFF7E2FFFDF786FC0A
:10B1A00001F0F1FD0420FFF7DBFF254C254D26467D
:10B1B000AE4204F1300410D300F0FAFB204C224ED2
:10B1C000AC4226D300F008FCFDF7C2FA1F4A137BFD
:10B1D00023F00103137306B070BD54F80C3C0593C3
:10B1E00054F8103C049354F8143C039354F8183C5E
:10B1F000029354F81C3C019354F8203C009354E90A
:10B200000A2354E90C0100F0CDF954F8303C5E6596
:10B21000CDE7D4E90A23B3F1FF3F08BFB2F1FF3F06
:10B2200005D052EA0301206803D101F0C6FD303495
:10B23000C6E73146183000F085FDF8E7CB34012031
:10B24000BCD90400BCD90400D3CE040010320120C4
:10B2500008B50348034A0021121A01F090FD08BD09
:10B2600078310120D0340120902370B5134E012293
:10B2700003FB0066002386B0CDE904230F2201936F
:10B28000CDE9023214234FF4A0720D4D0D4903FB9A
:10B290000055044602FB00110B4B3046009500F0B0
:10B2A00081F9737B2C7423F004037373074B01340F
:10B2B00003EBC423EE606B6006B070BD80310120EB
:10B2C00098340120D03C012089CD0400D0340120E5
:10B2D000BFB50020FFF744FF2B4B03F5006282F35C
:10B2E000088883F30A880024E023284D284E85F837
:10B2F0002230EC772C766C76AC766B6A254F43F473
:10B30000E0236B6285F82340FDF74EFDFDF7EEFE6E
:10B310004FF0FF33AB62EB62FEF778F8FDF70EFFFC
:10B3200040F201121C4B1D4D9A81B360C3E91C44CD
:10B33000DC6701F0F5FC0120FFF712FF0220FFF7A8
:10B340000FFF00F069FB164B75610593012315494A
:10B350004FF48062CDE9034328463B46CDE90144E2
:10B36000009400F01FF906466A7B284622F004028A
:10B370006A7301F05EFD2046FFF776FF3A463146DC
:10B380002846FDF78FFE00BFD034012000ED00E01D
:10B39000983401208DB10400A03201201032012028
:10B3A0003CDC0400103E01202DE9F3410446174621
:10B3B0001E46EFF31188202383F31288BFF36F8FAB
:10B3C000C368334A7BB180689168884219D057EAD4
:10B3D000060318D188F31188BFF36F8F6FF00F0049
:10B3E00002B0BDE8F081916891F90E100133E3607D
:10B3F00093682161A36088F31188BFF36F8F0020E9
:10B40000EEE72169F2E791F90E1090F90E306FF036
:10B410007E029942A8BF19469142B8BF11468B429D
:10B420002DDD01F0BCFC054622464146CDE9007603
:10B43000184800F009FA0028E1D0EFF31186202324
:10B4400083F31288BFF36F8FA068D0B1236821699E
:10B450009C420AD04BB193F90E309942A8BF1946CD
:10B460006FF07E039942B8BF194601F098FC40B1D5
:10B470003146084800F058FA6FF00A00B0E700259E
:10B48000D2E7002DF4D186F31188BFF36F8FF3E775
:10B4900098340120CC34012038B5836804466BB35E
:10B4A000194A926893422CD1C368012B03D9013BFE
:10B4B000C360002038BDEFF31185202383F3128889
:10B4C000BFF36F8F0169806801F069FC204601F0CD
:10B4D00004FDA06060B190F90E2022610022C0F846
:10B4E000882001F0A6FC2946084800F01DFAE0E794
:10B4F000E06085F31188BFF36F8FDAE76FF0150016
:10B50000D8E74FF0FF30D5E798340120CC34012044
:10B5100038B50446EFF31185202383F31288BFF377
:10B520006F8F01F0DAFC50B10022C0F8882001F0E2
:10B5300080FC2946BDE83840064800F0F5B9D4E95A
:10B5400002329A4218BF0133A36085F31188BFF31A
:10B550006F8F38BDCC34012013B5EFF31181202457
:10B5600084F31288BFF36F8F846844B1013C846018
:10B5700081F31188BFF36F8F002002B010BD52EA33
:10B58000030406D181F31188BFF36F8F6FF00F00B2
:10B59000F3E7CDE900230246014800F055F9ECE756
:10B5A000CC3401202DE9F043984685B000F15803D2
:10B5B000C0E91633109B002503730423073222F0E1
:10B5C000070643730F9B01EB06090F468373494639
:10B5D000C0E906558560C5730446FDF779FA0E9BF0
:10B5E000073020F00700A067C4E91C7602930D9B8A
:10B5F000A9EB000901930C9B4A4600933946434648
:10B600002046FDF72FFD064B65659B6884F86C505E
:10B6100003B1DB6F4846E36705B0BDE8F08300BFC8
:10B620009834012038B50D4D2B4653F8184F9C42E5
:10B6300000D004B9EC68AB6838B95A7BD20604D1A3
:10B64000A26912B9DA897F2A05D89C4202D0204625
:10B6500000F0C0FA23466B6138BD00BF983401206A
:10B6600008B590F90D200146002A437B04DA03F067
:10B670007F03437301F0A3FB044B9868431A5842BD
:10B680005841BDE80840FFF7CDBF00BF9834012006
:10B6900070B490F90D30427B002B29DBD30627D103
:10B6A00083692BBB134962F07F0242730A4652F84A
:10B6B000184F944218BF2346CC6923B9C0E900242F
:10B6C0002060C8610CE090F90E5093F90E60B5420D
:10B6D0000AD0AE4208DD5A68C0E9003210605860F6
:10B6E000002070BCFFF79EBF9C42E7D01B68E4E7D8
:10B6F00070BC704798340120002A2DE9F0410E46B5
:10B700000CBF10210821427B044611420FD141EAAF
:10B710000203D20918D1437308291BD00120FFF777
:10B7200081FFBFF35F8F637B23F060036373274B5D
:10B730009B68A34243D1EFF30583002B3FD13046F2
:10B74000BDE8F041FDF7C8BB03F07F03437301F090
:10B7500036FBE1E7A36813B1204601F038FB04F1A2
:10B76000180001F0F7FBA56D04F15807AF4211D0A6
:10B770004FF0000875B1284601F029FB05F11800CB
:10B7800001F0E8FB2846C5F88880FFF781FFA56D2A
:10B79000AF42EFD10D4DAB689C42BFD1EFF30583B3
:10B7A000002BBBD00120FFF73DFF40F20112084BF8
:10B7B0009A810022AB60C3E91C22DA67B1E786F305
:10B7C0001188BFF36F8FBDE8F08100BF983401206E
:10B7D000A032012070B590F90D200146002A437B6C
:10B7E00004DA03F07F03437301F0E9FA154A4B7B57
:10B7F000104663F07F034B7350F8183FD4698342BF
:10B8000008BF002323B9C1E900042160D1610CE025
:10B8100091F90E5093F90E60B5420ED0AE420CDD98
:10B820005868C1E90030016059609068BDE8704017
:10B83000431A58425841FFF7F5BE9C42E3D01B68BB
:10B84000E0E700BF98340120F8B5124B0C46DDE963
:10B85000067611469868104A1060EFF31182202294
:10B8600082F31288BFF36F8F9D68284601F0B9FA02
:10B87000B6F1FF3F08BFB7F1FF3F06D03A46334667
:10B88000064905F1180000F05DFA2046BDE8F840D1
:10B89000FDF722BB98340120B8340120D3CE040038
:10B8A000F8B50446EFF31186202383F31288BFF323
:10B8B0006F8F437B49B2DA0619D18569BDB903F0B0
:10B8C0007F03437301F07BFA437B164A63F07F03E7
:10B8D00043731346817353F8180F984218BF0546F7
:10B8E000D0695DB9C4E900300460D46111E0002082
:10B8F000A17386F31188BFF36F8FF8BD95F90E70B1
:10B90000B9420BD08F4209DD6B68C4E900531C605B
:10B910006C600120FFF786FE0120EAE7A842E1D033
:10B920002D68DEE79834012049B9EFF3058030B97E
:10B93000054B5A699B689A4201D0FDF7CDBA81F355
:10B940001188BFF36F8F70479834012010B5EFF363
:10B950001184202282F31288BFF36F8F427B51073C
:10B9600004D484F31188BFF36F8F10BD22F004025A
:10B970004273FFF78DFE2146BDE810400148FFF7F6
:10B98000D3BF00BFCC340120034648B9EFF3058292
:10B9900032B9064A51699268914201D0FDF79CBACA
:10B9A00083F31188BFF36F8F704700BF9834012075
:10B9B000EFF31181202383F31288BFF36F8F054BC0
:10B9C0009A68D37B013BD37381F31188BFF36F8FE8
:10B9D000704700BF9834012038B5EFF3118520245B
:10B9E00084F31288BFF36F8F0A4B00209A68D37BD1
:10B9F0000133D373FFF716FE85F31188BFF36F8F02
:10BA0000EFF3118084F31288BFF36F8FBDE83840E5
:10BA1000FFF7BABF98340120024B03F11802C3E9C3
:10BA20000622704798340120F8B5EFF311852023E2
:10BA300083F31288BFF36F8F19498868437B03F043
:10BA40007F03437301F0BBF908468B685A7B62F0B1
:10BA50007F025A7350F8182FCC69824208BF002227
:10BA600022B9C3E900042360CB610CE093F90E60B6
:10BA700092F90E70BE420ED0B7420CDD5168C3E998
:10BA800000210B6053600120FFF7CCFD2846BDE884
:10BA9000F840FDF721BAA242E3D01268E0E700BF08
:10BAA0009834012050EA01032DE9F04105460E4685
:10BAB00003D1FFF7B9FF00202BE0831C71F1FF33A6
:10BAC00029DB01F05CFA2C18EFF31188202383F3B3
:10BAD0001288BFF36F8F124F124BB8681860FFF7D0
:10BAE000BFFDB86810492A463346183000F02AF9DD
:10BAF000BA684046537B43F010035373FDF7ECF9EB
:10BB000001F03DFA201A63EB0303012873F10003EF
:10BB1000D1DBBDE8F0816FF00104241AD4E700BF47
:10BB200098340120B8340120D3CE0400B1F1FF3F96
:10BB300008BFB0F1FF3F38B506D10B4B986801F054
:10BB400087F94FF0FF3038BDFFF7ACFF4FF47A753F
:10BB50000446002147F6112047F612220023C4FBB9
:10BB60000501FCF78DFCEEE798340120014B986845
:10BB7000704700BF983401200122044BC01A044BC7
:10BB8000C0105843034B1A54704700BF3033012094
:10BB9000ABAAAAAACC340120C3897F2B12D80A4BA6
:10BBA0001B6863B1094B90F90E201B689A4209DBB0
:10BBB000437BDB0606D1064BC31A18BF012303F0F3
:10BBC000010070470023FAE7C0340120BC34012093
:10BBD0008031012070B50E4B0E4C1E7C054606EBE5
:10BBE000460304EBC304204601F0B4F900220A4BDB
:10BBF00028469A55FFF7D0FF48B1084B2046BDE8CC
:10BC000070401A680649013AD31700F09BB870BD1E
:10BC10009834012030330120CC340120C03401207D
:10BC200079BB040038B5EFF31185202383F3128824
:10BC3000BFF36F8F104B114A9C681068A04206D169
:10BC4000FFF7C8FF85F31188BFF36F8F38BD002160
:10BC50001B7C11600A4AD35C002BF3D02046FFF70F
:10BC60009BFF0028EED0637BDB0602D12046FFF766
:10BC7000B1FD2046E4E700BF98340120B83401202C
:10BC8000CC34012008B50648064A0749121A01F0CB
:10BC900078F8BDE80840054A0549064801F071B842
:10BCA000003001207831012050DC04000000000049
:10BCB00050DC040000300120034B1B680BB9FEF779
:10BCC0001DB90020704700BFC434012030B570B1E9
:10BCD0000B4B5B6898420AD0036843B1D3E9042157
:10BCE000D0E90445121941EB0501C3E90421D0E96B
:10BCF000003213605A600023C0E9003330BD00BF3A
:10BD00005031012010B50E4B1C689C4204D1FFF746
:10BD1000D3FF6FF0004010BDFFF7CEFF002CF8D02E
:10BD2000D4E904321B1A62EBE072B3F1004F72F1F6
:10BD30000001EEDA002AACBF18460020EBE700BF96
:10BD400050310120B3F1FF3F08BFB2F1FF3FF8B51A
:10BD500004461D4616465ED08160EFF3118720230E
:10BD600083F31288BFF36F8F013275F1FF3324DA4A
:10BD70006FF001032D49D1E900209B1A4FF0FF32EB
:10BD800062EB00009E1B60EB0500012E70F10003CA
:10BD900001DA01260020C4E90460254ED6F800C06F
:10BDA0007568B44508BF4FF0000CBCF1000F0DD111
:10BDB000C4E900652C6074601CE0FFF77DFF01366C
:10BDC00045F10005361845EBE070E4E7DCE90420B6
:10BDD000D4E90431934271EB000E1DDAD21ADCF87B
:10BDE000043060EB0100CCE90420C4E900C31C600E
:10BDF000CCF804403368B34209D09C4207D10D4BC4
:10BE00001C6824B9FFF77EFF2146FEF78DF887F303
:10BE10001188BFF36F8FF8BD9B1A61EB0001AC4531
:10BE2000C4E90431C4D0DCF800C0BEE748330120C7
:10BE300050310120C43401202DE9F84FEFF3118C6B
:10BE4000202383F31288BFF36F8FDFF8B0A0DFF8F1
:10BE5000B0900024C9F80000DAF800000025504531
:10BE600008BF0020274FE046D7E90021D9F800306D
:10BE700078B3D0E9046C4FEAE37EB3427EEB0C0B5F
:10BE800005DAF61A6CEB0E04C0E9046421E0B2187E
:10BE900041EBE671C0E90445C7E90021FFF716FF51
:10BEA00088F31188BFF36F8F83689847EFF3118889
:10BEB000202383F31288BFF36F8FD9F80030DAF8AC
:10BEC00000009B1B5045C446C9F80030CBD1D7E9D0
:10BED000002100249A1841EBE373C7E90023C9F855
:10BEE0000040FFF70FFF2146FEF71EF888F3118888
:10BEF000BFF36F8FBDE8F84FFFF794BE50310120BC
:10BF0000C43401204833012010B5EFF311842023FD
:10BF100083F31288BFF36F8FFFF7CEFE0346054A07
:10BF2000D2E90001181841EBE37184F31188BFF3E3
:10BF30006F8F10BD483301202DE9F04F43688DB05D
:10BF400015468046029383789A0740F10D810024BC
:10BF50000E78002E00F00A81252E0BD04B1C039387
:10BF6000013441463046029B98470028C0F2F680D3
:10BF70000399EDE74E788B1C252E0393F0D0002714
:10BF8000B946BB46BBF11F0F38D8A6F12003102BD2
:10BF90000AD8DFE803F02A0909300909092109094B
:10BFA0000928092D09091F00A6F13003092B33D9EF
:10BFB0002A2E37D11BF0400F55F8043B40F0828009
:10BFC000002BA7BF4BF0200B9946C3F100094BF0A3
:10BFD000280B01E04BF0010B039B13F8016B03935B
:10BFE000002ECFD130E04BF0020B4BF0040BF3E707
:10BFF0004BF0080BF0E74BF0100BEDE7BBF17F0FB8
:10C0000019D8A6F13003092BD2D81BF0400F03D06A
:10C010000A2101FB0737DFE70A214BF0200B01FB68
:10C020000939D9E72E2E06D11BF0400F40F09E8033
:10C030004BF0400BD0E76C2E31D02BD8682E36D089
:10C040006A2E3CD04C2E3AD0002F46F02003B8BFC9
:10C050002BF04002A3F16501BCBF00271FFA82FB51
:10C06000022901D9612B2FD107350727DFF8ACA2B0
:10C0700025F0070508351BF0080F66D00AEB070B03
:10C0800056465E4563D1A4EB0A0AA9EB070906EB05
:10C090000A026FE1742E9FD07A2E9DD0D4E71BF058
:10C0A000800F18BF4BF4007B4BF0800B94E71BF420
:10C0B000807F18BF4BF4007B4BF4807B8CE74BF404
:10C0C000207B89E71F4687E7A6F16301122900F26A
:10C0D000F080DFE811F013004F00EE00EE00EE00FC
:10C0E000EE004F00EE00EE00EE00EE00EE00FE006F
:10C0F000E900EE00EE001B00EE00AF0055F8043B37
:10C1000001270DF1180A8DF81830B4E755F804AB83
:10C11000834BBAF1000F08BF9A461BF0400F504600
:10C1200014BF39464FF0FF3100F042FF0746A2E747
:10C1300041462020029B984700280FDB013EB74272
:10C14000F6D34C44B146A41B98E74E46F7E7414668
:10C1500016F8010B029B9847002892DA98F80230F3
:10C1600043F0040388F802304FF0FF3420460DB04E
:10C17000BDE8F08F1BF0800F34D01BF4007F2CD073
:10C18000073525F00705AA4669685AF8080B2BF011
:10C1900010050029ADB237DA404245F4806561EB05
:10C1A00041010DF1180B0A235A4600F00DFFA0EBD8
:10C1B0000B0301936B0662D5019B25F001019F42A1
:10C1C00089B240F3A180002E00F0998015F0100292
:10C1D00040F09C80BB460D4623E0AA465AF8040B6B
:10C1E000C117D4E7AA461BF4807F5AF8041B01D17B
:10C1F0000846F5E71BF4007F19BF48B241F3C011B0
:10C2000008B241F3C031C2E750EA0103C9D11BF0C3
:10C21000400FC6D0002FC4D12BF01102BB460197AE
:10C2200095B240F2064115EA01021CBF0BF1010B69
:10C2300000222CE02BF010020A231FFA82FB1BF0D5
:10C24000800C49D01BF4007115BF0735AA4625F0B4
:10C2500007055AF8040B1EBFAA4669685AF8080B6E
:10C2600050EA010545D12BF016051BF0400FADB289
:10C2700042D0002F40D12BF01702019795B215F054
:10C28000100248D0019B002E42D103F1010B290777
:10C290005AD4EB0706D5D9456FDDA9EB0B030199FD
:10C2A000CB465F185B4649E04BF0100B1023782615
:10C2B000C5E7782B04D1C6F1780343F01003BEE73D
:10C2C00041462520029B98470028FFF647AF0234DD
:10C2D00047E608230026B2E7AA461BF480715AF805
:10C2E000040BBDD01BF400711ABFC0B2614680B20E
:10C2F000B6E72BF0060295B20DF1180B54E725F0C6
:10C300001105BB46ADB28CE70D46B8E73B460D467E
:10C3100003F1020BBBE7DDF804B082E748DC040060
:10C3200041DC0400CDE9043241462020029B9847BD
:10C330000028FFF613AF049B059A01339945F1DC01
:10C34000A4EB0B019B46CC180AB341463020029B5C
:10C3500098470028FFF602AF8EB901342744391BF5
:10C36000019B994224DC1D4655BB019AA9EB0B09A0
:10C37000554622441446914433E0019F92E702342B
:10C3800041463046029B98470028E7DAE6E640F24D
:10C3900006410D42E2D015F0020F04F101044146BE
:10C3A00014BF2B20202015F4806F18BF2D20E9E743
:10C3B00041463020029B013498470028CFDACDE671
:10C3C00006AB013D4146585D029B98470028CBDAF9
:10C3D000C4E641462020029B013498470028FFF61E
:10C3E000BDAEA9EB0403002BF3DCC1E570470346A7
:10C3F0000A46F0B41979DB8800681343DC028768C9
:10C40000066906D513F4402F03D0DA0748BF83F43A
:10C410004023012534688D4023F48012DB074CBF94
:10C420002C43AC4334603B68F0BC1847836800EB96
:10C43000C101B3F5004F2CBF51F8220031F81200B2
:10C44000704700EBC1018068B0F5004F2CBF41F888
:10C45000223021F812307047012208B5FFF7E6FFBD
:10C46000D04008BD836800EBC101B3F5004F08D38D
:10C470004B681AB143F001034B60704723F001038E
:10C48000FAE74B881AB143F001034B80704723F061
:10C490000103FAE753000122FFF7D3BFB0F5004FC5
:10C4A00034BF04230823481C0833A0EBD300B0FAA0
:10C4B00080F0C0F11F0070472DE9F0410D468668FD
:10C4C0000446FFF7C9FFB6F5004F014601D3012826
:10C4D00032D03046FFF7E2FF04EB80010E6996B9D7
:10C4E0000122E36882401343E36002220D612B4680
:10C4F00029462046FFF7A5FF032229462046BDE82E
:10C50000F041FFF79EBF022231462046FFF78EFF23
:10C510000746034629462046FFF793FF032233468A
:10C5200029462046FFF78DFF39462B462046FFF768
:10C5300088FF02223146E1E7BDE8F081B2F5802FA5
:10C540002CBF082304232DE9F0410026D21A8C18B1
:10C55000CD1D25F0070524F00704641BE4080560E1
:10C5600021462046AC60EE60FFF798FF421D920026
:10C57000013002F107074FEAD7073146A2F1100256
:10C5800005F11000B8BF324600F00AFD3A463146C8
:10C590002846FFF77FFF3346324631462846FFF7ED
:10C5A00050FFA4EB0708284631460122FFF75AFF47
:10C5B00042463946FFF76EFF3B463246394628462B
:10C5C000FFF73FFF21462846FFF764FF4346324608
:10C5D00021462846FFF735FF214628460122FFF76E
:10C5E00041FF3946BDE8F041FFF766BF00207047C4
:10C5F0000FB407B504A951F8040B0191FCF710F929
:10C6000003B05DF804EB04B07047038B13F007032D
:10C6100005D10368002B0CBF002003207047022BBC
:10C6200005D1408BB0FA80F0400980007047012BA3
:10C6300005D10368002B0CBF0020052070470020A7
:10C64000704710B50C4600B111B96FF0150010BD60
:10C65000081D00F093F80028F9D1A368032BF6D940
:10C66000F3E72DE9F0410D4607461946281D90468F
:10C670001E4600F094F8044638B133464246294637
:10C680003846A446BDE8F0416047BDE8F08110B4EB
:10C69000EFF31182202484F31288BFF36F8F41617E
:10C6A00010BC0121FCF7EEB838B50C46054658B170
:10C6B00051B10B6843B14B6833B11C22002100F02B
:10C6C0006FFC00202C6138BD6FF01500FBE770B5E2
:10C6D00005460E46FFF7B5FF041E14DBEFF311828B
:10C6E000202383F31288BFF36F8F4FF6FF716B8B9C
:10C6F0002C8B8B4204F0070407D182F31188BFF31F
:10C700006F8F6FF00A04204670BD022C0CD10133EC
:10C710006B8382F31188BFF36F8F0023224631466B
:10C720002846FFF79EFFEEE7062C14D8DFE804F05A
:10C7300004131313041A0400002333606B683BB91D
:10C74000C5E90066ACB902212846FCF79BF8DAE798
:10C750001E606E60F6E782F31188BFF36F8F6FF093
:10C760000404D0E782F31188BFF36F8F6FF0850464
:10C77000C9E782F31188BFF36F8FC4E7034658B14E
:10C78000426802F00302012A03D0032A04D102689E
:10C7900012B10020986070476FF015007047426832
:10C7A000034602F00302032A4FF00002816014BF27
:10C7B000104600685A6070477047012801D1EFF3B6
:10C7C0000583FEF7B5BC01460068FFF7F6BF08B564
:10C7D000FCF77AF9BDE80840FCF79AB97047704752
:10C7E00000210120FFF7E9BF036F83F30B88704737
:10C7F00061B662B680F31188BFF36F8F704772B66F
:10C80000002383F31188BFF36F8FBFF34F8F30BFC7
:10C8100062B6BFF36F8F704772B6002383F311883F
:10C82000BFF36F8FBFF34F8F20BF80F31188BFF32B
:10C830006F8F62B6704740E800F313F4803FD8B2C0
:10C8400008BF6FF01500704730B50C684B6885B0B5
:10C850000A894D890094013B24F01F04234402F00F
:10C860001F0242EA451223F01F0369468DF8082093
:10C870000393FCF799FC05B030BD08B5FCF754FEF6
:10C88000002008BD002070470C220369C9B201FBDB
:10C890000233186C00F00700704770B5C9B2036925
:10C8A000EFF31185202484F31288BFF36F8F0C26D9
:10C8B00006FB0134246C14F0C00408D0A24206D058
:10C8C00085F31188BFF36F8F4FF0FF3070BD0122E9
:10C8D00006FB01331A6485F31188BFF36F8F436839
:10C8E00003EBC1035B6898470020EFE78022FFF766
:10C8F000D4BFF8B5069F0469C9B2EFF311862025AD
:10C9000085F31288BFF36F8F0C2505FB0144256C5E
:10C9100005F0070CBCF1010F0CD1276486F31188D8
:10C92000BFF36F8FC4E90E23436853F83130984743
:10C930000020F8BD05F0C005AF4286F31188BFF3B3
:10C940006F8F0CBF6FF077004FF0FF30F1E713B53A
:10C9500080240094FFF7CDFF02B010BD10B41C245A
:10C960000069CBB203FB0400002110BC104700207B
:10C97000FDF7CEBC002000F006B91046FEF7C8BD9A
:10C98000436800205B68DB680B607047436802EA1D
:10C9900001005B6821EA020158600020996070473D
:10C9A000436800205B6859607047436800205B68FB
:10C9B0009960704743685A68136821EA03000B4086
:10C9C000506000209360704710B503695868F8B153
:10C9D000884219D19C680868A142586000D19860CB
:10C9E000002008602AB15A680A609A68596002B942
:10C9F0009960002010E0814206D1086820609868A4
:10CA00008142EDD19C60EBE7044600680028F2D13A
:10CA1000002AE8D16FF0150010BD30B543681360EF
:10CA2000057A446804EBC504A34202D36FF0010009
:10CA300030BD5C798C4201D00833F0E70020F7E785
:10CA400043681B68D3F83031704743681B68D3F8DC
:10CA50008004C3F88004704742681368D3F84C011F
:10CA600050B10020526A12780A70C3F84C01D3F812
:10CA70004C2101229A6270474FF0FF30704737B562
:10CA8000044600220121C620FCF7BAFAC620FCF7B2
:10CA90009BFA626853691068C0F82435917E537E12
:10CAA000D58B0B43918B127E294389B20B431343E1
:10CAB000C0F86C3561680B68D3F8002242F480221C
:10CAC000C3F800220822C3F800250A6A0121C3F82E
:10CAD0003C270022C3F840271965D3F830110029FC
:10CAE000FBD0C3F8002563680021DD6801AA284651
:10CAF000FFF793FF002805DB019B2A681979186866
:10CB0000FDF79EF8082162681368C3F80015117AD2
:10CB100051B9526AC3F804270122C3F80827C3F8A1
:10CB20004C11D3F84C119A62002003B030BD00B50F
:10CB300089B006AB02930823039301AB049304234B
:10CB40000791CDE9053004AA184602A9FDF7D8FAE5
:10CB50000228019B09D003280AD060B9181E18BF0B
:10CB60000120404209B05DF804FB6FF01500F9E7C1
:10CB70006FF08500F6E74FF0FF30F3E700207047D5
:10CB8000004700F0C9B8FDF741BBF7B51646DDE92F
:10CB90000847019001A81D46FDF754FC019BB6F122
:10CBA000000C18BF4FF0010C00EB83000B1E18BFE8
:10CBB0000123002D43EA4C0314BF4FF00C0C4FF03F
:10CBC000000C002C43EA0C0314BF4FF4706C4FF0C0
:10CBD000000C002F43EA0C0314BF4FF4403C4FF00D
:10CBE000000CD0F8802043EA0C0322EA030301B1D1
:10CBF00009780EB13678760019430DB12D78AD0065
:10CC000031430CB12478240229430FB13F783F040B
:10CC10000C433C43C0F8804003B0F0BD1FB50DF19C
:10CC20000F03019300238DF80F101A461946009345
:10CC3000FFF7ABFF05B05DF804FB70B5044608468E
:10CC40001646FDF70FFC083034F810300D46DA05B3
:10CC500009D5C3F3432304EBC3023146284654F8F5
:10CC6000333052689847A3682BB131462846E268B2
:10CC7000BDE87040184770BDF0B50446002001279C
:10CC80000546844695420AD1D4F8403133B1002399
:10CC9000C4F84031D4F8403140F48030F0BDEBB2FC
:10CCA0009B0003F580769B0807FA03F3194208D02E
:10CCB00054F806E0BEF1000F03D044F806C0A659B0
:10CCC00018430135DEE770B50679044630460D4657
:10CCD000FDF758FCB0B13046FDF742FC90B9304644
:10CCE000FDF72EFC012322688340C2F80833226836
:10CCF00003B202EB8303D3F8102522F00302C3F83A
:10CD0000102570BD2846BDE870400021FFF786BFA2
:10CD1000FDF71EBDFFF7D7BF08B1FCF72BBC70476E
:10CD2000704740B1C368587810F001001EBF1878F2
:10CD3000B0FA80F040097047EFF31183202383F3AA
:10CD40001288BFF36F8FFEE708B5FFF7F5FF10B548
:10CD5000D0E9003433B90020E268537843F001038E
:10CD6000537010BD204698470028F4D00028B8BF63
:10CD70004042FF28A8BFFF20E3681870ECE700F0EE
:10CD80000FB900F000B97047202408B5EFF3118304
:10CD900084F31288BFF36F8FFFF731FDF6E790F948
:10CDA0000E308B4201D0FEF77BBD00207047EFF3C1
:10CDB0000580003818BF01207047FEF7C7BDD0E9D5
:10CDC000003213605A600023C0E90033704708B591
:10CDD000FFF7F5FF437B23F00203437300238360D7
:10CDE00008BD38B504460D46FEF73AFC637B43F0B8
:10CDF00002036373E5B1A5602B689D4209D16B689E
:10CE0000C4E900531C606C6012E06A689A42F6D074
:10CE10001B68002BF3D094F90E2093F90E108A4270
:10CE2000F3D09142F1DD5A68C4E9003214605C60CD
:10CE300038BD10B5EFF31184202383F31288BFF3BC
:10CE40006F8FFEF725FC84F31188BFF36F8F10BD41
:10CE500010B50446183000F07DF8EFF3118120235F
:10CE600083F31288BFF36F8F627B12F0100204D03D
:10CE700081F31188BFF36F8F10BD2046BDE81040CD
:10CE8000FEF73ABC38B5EFF31184202383F3128800
:10CE9000BFF36F8F002390F86C50427B80F86C30AA
:10CEA0002DB121B184F31188BFF36F8F38BD12F01B
:10CEB000280FF7D183680BB1FFF789FF437B29B9AE
:10CEC00003F0FB034373FEF7E3FBEBE703F0EB0335
:10CED000F8E701211838FFF7D5BF38B5EFF3118512
:10CEE000202383F31288BFF36F8F0468A0420DD014
:10CEF00034B12046FFF76BFF04F1180000F02AF868
:10CF000085F31188BFF36F8F204638BD0024F7E703
:10CF1000EFF31181202282F31288BFF36F8F027B1F
:10CF2000D2070CD581F31188BFF36F8F002383F3F1
:10CF30001188BFF36F8F0423184602DF7047437BCD
:10CF40001B0704D581F31188BFF36F8F704701224F
:10CF5000FEF7D2BB10B5EFF31184202282F31288C2
:10CF6000BFF36F8F03683BB1FEF7B0FE002084F380
:10CF70001188BFF36F8F10BD6FF01500F7E708B58C
:10CF8000FEF7C2FF08BD0A44431E914200D170471C
:10CF900010B511F8014B914203F8014FF9D110BDC2
:10CFA00002440346934200D1704703F8011BF9E79E
:10CFB0000246014410B58A42134603D01C78013260
:10CFC000002CF8D1181A10BDF0B5C3F1370704468C
:10CFD00003F01F031046FFB2082BE6B232D0102B2D
:10CFE0003DD06508A40845EAC17544EA81748A0801
:10CFF0002D1942EB5102290941EA02716D1842EBE9
:10D000001212290A41EA02616D1842EB1222290C20
:10D0100041EA02416D1842EB1242AD1842F10002A2
:10D02000EC0844EA4274D10804EB8402A6EB420502
:10D03000EDB2092D0CD90134A5F10A0541F1000129
:10D04000EDB212E0E40806F0070544EA4174C908AD
:10D05000303554EA010200F8015BBDD1F0BD24096E
:10D0600006F00F0544EA01740909092D84BFED1982
:10D07000EDB2EDE701480068704700005C33012025
:08D0800034B4FF7F0100000041
:10D0880085C8040000000000859F0400000000001F
:10D0980041960400E0D00400F598040008D104008B
:10D0A800F5980400F4D00400F59804001CD104009D
:10D0B8007FCA040030D10400A598040000000000D5
:10D0C800919E04000000000051950400000000003B
:08D0D8007DCB04000000000004
:10D0E000E6DB040048DA040058DA04005831012075
:10D0F00098330120F3DB040080DA0400C8DA04006E
:10D100005A310120EC330120FFDB040098DA0400DF
:10D11000C8DA04005C310120F83301200ADC040085
:10D12000B0DA0400C8DA04005E31012004340120C2
:10D130001EDC0400F8DA040044DB04006031012046
:04D140001034012086
:10D1440000000000E1C7040000000000E1C7040083
:10D1540000000000E1C7040000000000E1C7040073
:10D1640000000000E1C7040000000000E1C7040063
:10D1740000000000E1C7040000000000E1C7040053
:10D1840000000000E1C7040000000000E1C7040043
:10D1940000000000E1C7040000000000E1C7040033
:10D1A40000000000E1C7040000000000E1C7040023
:10D1B40000000000E1C7040000000000E1C7040013
:10D1C40000000000E1C7040000000000E1C7040003
:10D1D40000000000E1C7040000000000E1C70400F3
:10D1E40000000000E1C7040000000000E1C70400E3
:10D1F40000000000E1C7040000000000E1C70400D3
:10D2040000000000E1C7040000000000E1C70400C2
:10D2140000000000E1C7040000000000E1C70400B2
:10D2240000000000E1C7040000000000E1C70400A2
:10D2340000000000E1C7040000000000E1C7040092
:10D2440000000000E1C7040000000000E1C7040082
:10D2540000000000E1C7040000000000E1C7040072
:10D2640000000000E1C7040000000000E1C7040062
:10D2740000000000E1C7040000000000E1C7040052
:10D2840000000000E1C7040000000000E1C7040042
:10D2940000000000E1C7040000000000E1C7040032
:10D2A40000000000E1C7040000000000E1C7040022
:10D2B40000000000E1C7040000000000E1C7040012
:10D2C40000000000E1C7040000000000E1C7040002
:10D2D40000000000E1C7040000000000E1C70400F2
:10D2E40000000000E1C7040000000000E1C70400E2
:10D2F40000000000E1C7040000000000E1C70400D2
:10D3040000000000E1C7040000000000E1C70400C1
:10D3140000000000E1C7040000000000E1C70400B1
:10D3240000000000E1C7040000000000E1C70400A1
:10D3340000000000E1C7040000000000E1C7040091
:10D3440000000000E1C7040000000000E1C7040081
:10D3540000000000E1C7040000000000E1C7040071
:10D3640000000000E1C7040000000000E1C7040061
:10D3740000000000E1C7040000000000E1C7040051
:10D3840000000000E1C7040000000000E1C7040041
:10D3940000000000E1C7040000000000E1C7040031
:10D3A40000000000E1C7040000000000E1C7040021
:10D3B40000000000E1C7040000000000E1C7040011
:10D3C40000000000E1C7040000000000E1C7040001
:10D3D40000000000E1C7040000000000E1C70400F1
:10D3E40000000000E1C7040000000000E1C70400E1
:10D3F40000000000E1C7040000000000E1C70400D1
:10D4040000000000E1C7040000000000E1C70400C0
:10D4140000000000E1C7040000000000E1C70400B0
:10D4240000000000E1C7040000000000E1C70400A0
:10D4340000000000E1C7040000000000E1C7040090
:10D4440000000000E1C7040000000000E1C7040080
:10D4540000000000E1C7040000000000E1C7040070
:10D4640000000000E1C7040000000000E1C7040060
:10D4740000000000E1C7040000000000E1C7040050
:10D4840000000000E1C7040000000000E1C7040040
:10D4940000000000E1C7040000000000E1C7040030
:10D4A40000000000E1C7040000000000E1C7040020
:10D4B40000000000E1C7040000000000E1C7040010
:10D4C40000000000E1C7040000000000E1C7040000
:10D4D40000000000E1C7040000000000E1C70400F0
:10D4E40000000000E1C7040000000000E1C70400E0
:10D4F40000000000E1C7040000000000E1C70400D0
:10D5040000000000E1C7040000000000E1C70400BF
:10D5140000000000E1C7040000000000E1C70400AF
:10D5240000000000E1C7040000000000E1C704009F
:10D5340000000000E1C7040000000000E1C704008F
:10D5440000000000E1C7040000000000E1C704007F
:10D5540000000000E1C7040000000000E1C704006F
:10D5640000000000E1C7040000000000E1C704005F
:10D5740000000000E1C7040000000000E1C704004F
:10D5840000000000E1C7040000000000E1C704003F
:10D5940000000000E1C7040000000000E1C704002F
:10D5A40000000000E1C7040000000000E1C704001F
:10D5B40000000000E1C7040000000000E1C704000F
:10D5C40000000000E1C7040000000000E1C70400FF
:10D5D40000000000E1C7040000000000E1C70400EF
:10D5E40000000000E1C7040000000000E1C70400DF
:10D5F40000000000E1C7040000000000E1C70400CF
:10D6040000000000E1C7040000000000E1C70400BE
:10D6140000000000E1C7040000000000E1C70400AE
:10D6240000000000E1C7040000000000E1C704009E
:10D6340000000000E1C7040000000000E1C704008E
:10D6440000000000E1C7040000000000E1C704007E
:10D6540000000000E1C7040000000000E1C704006E
:10D6640000000000E1C7040000000000E1C704005E
:10D6740000000000E1C7040000000000E1C704004E
:10D6840000000000E1C7040000000000E1C704003E
:10D6940000000000E1C7040000000000E1C704002E
:10D6A40000000000E1C7040000000000E1C704001E
:10D6B40000000000E1C7040000000000E1C704000E
:10D6C40000000000E1C7040000000000E1C70400FE
:10D6D40000000000E1C7040000000000E1C70400EE
:10D6E40000000000E1C7040000000000E1C70400DE
:10D6F40000000000E1C7040000000000E1C70400CE
:10D7040000000000E1C7040000000000E1C70400BD
:10D7140000000000E1C7040000000000E1C70400AD
:10D7240000000000E1C7040000000000E1C704009D
:10D7340000000000E1C7040000000000E1C704008D
:10D7440000000000E1C7040000000000E1C704007D
:10D7540000000000E1C7040000000000E1C704006D
:10D7640000000000E1C7040000000000E1C704005D
:10D7740030D1040041CA040000000000E1C70400E5
:10D7840000000000E1C7040000000000E1C704003D
:10D7940000000000E1C7040000000000E1C704002D
:10D7A40000000000E1C7040000000000E1C704001D
:10D7B40000000000E1C7040000000000E1C704000D
:10D7C40000000000E1C7040000000000E1C70400FD
:10D7D40000000000E1C7040000000000E1C70400ED
:10D7E40000000000E1C7040000000000E1C70400DD
:10D7F40000000000E1C7040000000000E1C70400CD
:10D8040000000000E1C7040000000000E1C70400BC
:10D81400DDAC040081CB040000000000E1C704007B
:10D8240000000000E1C7040000000000E1C704009C
:10D8340000000000E1C7040000000000E1C704008C
:10D8440000000000E1C7040000000000E1C704007C
:10D8540000000000E1C7040091B0040081CB040083
:10D8640000000000E1C7040000000000E1C704005C
:10D8740000000000E1C7040000000000E1C704004C
:10D8840000000000E1C7040000000000E1C704003C
:10D8940000000000E1C7040000000000E1C704002C
:10D8A40000000000E1C7040000000000E1C704001C
:10D8B40000000000E1C7040000000000E1C704000C
:10D8C40000000000E1C7040000000000E1C70400FC
:10D8D40000000000E1C7040000000000E1C70400EC
:10D8E40000000000E1C7040000000000E1C70400DC
:10D8F40000000000E1C7040000000000E1C70400CC
:10D9040000000000E1C7040000000000E1C70400BB
:10D9140000000000E1C7040000000000E1C70400AB
:10D9240000000000E1C7040000000000E1C704009B
:10D9340000000000E1C7040000000000E1C704008B
:10D9440000000000E1C7040000000000E1C704007B
:10D9540000000000E1C7040000000000E1C704006B
:10D9640000000000E1C70400C1A3040081CB04004F
:10D9740000000000E1C7040000000000E1C704004B
:10D9840000000000E1C7040000000000E1C704003B
:10D9940000000000E1C7040000000000E1C704002B
:10D9A400EDAC040081CB040000000000E1C70400DA
:08D9B40000000000E1C70400BF
:10D9C00000A0104000820D4000040540050000004A
:10D9D0000400000001000000000000000000000042
:10D9E0000338FDD870470000000000000000000070
:10D9F0000338FDD87047000008D104000D00110065
:10DA00001CD10400090000000030012000000000CB
:10DA100006000100020000001CDA04000000000003
:10DA2000D7DB040006000000E04F160000300120A4
:10DA3000DFDB040021000000E0EF0220C9950400B4
:10DA400099950400000000001D9704000D96040045
:10DA50006FC9040075C904009D960400EDC8040058
:10DA60004FC904000000000089C804000000000045
:10DA70000000000000A0104000820D40000405409E
:10DA80001F00000000A01040000000000000000087
:10DA900000C0104001000000FFFF000000820D40A8
:10DAA000000000000100000000A00D400000000088
:10DAB000FF07000000040540000000000200000015
:10DAC00000000000000000004999040081C9040022
:10DAD0008DC90400A1C90400ABC90400B5C9040084
:10DAE000259B0400C9C904000000000000A01040EC
:10DAF00000820D400004054000600C400000000062
:10DB00000000000020DB040000C201000000D6017C
:10DB10000000000000000040CA340120C934012088
:10DB200000600C402CDB04000100000034DB04002A
:10DB30000400000024000000260000022506000169
:10DB40002706000359CA0400959D04004BCA04002F
:10DB500000A0104000820D400004054088D0040061
:10DB600088D00400C8D00400D0D00400E0D0040065
:10DB7000E0D004002A2A2A20426F6F74696E672061
:10DB80006E524620436F6E6E6563742053444B2083
:10DB900076322E392E302D373738376232363439D7
:10DBA000383430202A2A2A0A002A2A2A2055736962
:10DBB0006E67205A6570687972204F532076332E35
:10DBC000372E39392D316638663364633239313452
:10DBD00032202A2A2A0A00464C4153485F3000531B
:10DBE00052414D5F3000636C6F636B403130653084
:10DBF0003030006770696F4031306130303000671D
:10DC000070696F406438323030006770696F40353A
:10DC1000303430300000010405020608090F756138
:10DC200072744063363030300000071823232323FA
:10DC30002323232323232323230001026D61696E01
:10DC400000286E756C6C29002A666C6F61742A005E
:10DC5000EDC50400000000007BC8040000000000C7
:10DC600000000000499E040000000000FF000000CA
:10DC70000090D00300000000000000000000000041
:10DC80000000000000000000000000000000000094
:10DC90000000000000000000000000000000000084
:10DCA0000000000000000000000000000000000074
:10DCB0000000000000000000000000000000000064
:10DCC000000000000000000000000000080000004C
:10DCD000FF00000000000000020000000000000043
:10DCE0000000000000000000000000000000000034
:10DCF0000000000000000000000000000000000024
:10DD00000000000000000000000000000000000013
:10DD10000000000000000000000000000000000003
:10DD200000000000000000000000000000000000F3
:10DD30000000000000000000040000000F000000D0
:10DD400000000000010000000000000000000000D2
:10DD5000670000000000000000000000000000005C
:10DD600000000000000000000000000000000000B3
:10DD700000000000000000000000000000000000A3
:10DD80000000000000000000000000000000000093
:10DD90000000000000000000000000000000000083
:08DDA000503101205031012037
:0ADDA8000000000000000000000071
:10DDB40064310120643101200000000000000000F3
:04DDC4000E0000004D
:04DDC80015E015E06D
:0400000340008DDD4F
:00000001FF
